:02000000812855
:10000800FF00030E8301AB000A08AC008A017008E8
:10001800A1007C08A0000B1D2D283C308100A50AFA
:100028002508283A031D2C282408003A031D2228F5
:100038008710861607100130A40029282408013AE1
:10004800031D292887148612071402308606A50185
:100058000B118B1C5228260AF0007008A6000A30E3
:10006800F4002608F00070207808F0007008A80056
:100078000A30F4002608F00070207008A700143039
:100088002602031C5128A601220AF0007008A200CB
:1000980003302202031C5128A2018B102108F00012
:1000A8002008FC002C088A002B0E8300FF0E7F0E10
:0200B80009003D
:0E00BA00831203132A088A0029088200080016
:1000C8005D208A110A128000840AA90A0319AA0A63
:0800D800F003031D6428080079
:1000E00083120313F8010830FC00700DF80D74083A
:1000F000F80203187D28F8070310F00DFC0B752893
:020100000800F5
:1001020083120313A201A3010130A400A501A601D9
:10011200A701A80105308316860088018312880191
:1001220083168701073081003C3083128100F03052
:100132008B002208033C031C0629A30A2308003A69
:10014200031DC02806132808083EF00001300318DA
:10015200013EF1007008A9007108AA005D208A1111
:100162000A128800861506120D30FC00FB30FD00D5
:10017200FD0BB928FC0BB928000000000229230856
:10018200013A031DE12886112708083EF0000130DC
:100192000318013EF1007008A9007108AA005D2051
:1001A2008A110A128800061606130D30FC00FB3075
:1001B200FD00FD0BDA28FC0BDA2800000000022902
:1001C2002308023A031D0229861106122208083E5C
:1001D200F00001300318013EF1007008A900710817
:1001E200AA005D208A110A12880006170D30FC0051
:1001F200FB30FD00FD0BFB28FC0BFB280000000080
:0E020200A30106190529A4019A289A280729A4
:100210003F3406345B344F3466346D347C340734F9
:040220007F3467348C
:02400E004A2F37
:00000001FF
